{
  "_format": "hh-sol-artifact-1",
  "contractName": "OrionVoting",
  "sourceName": "contracts/OrionVoting.sol",
  "abi": [
    {
      "inputs": [
        {
          "internalType": "address",
          "name": "veORN_",
          "type": "address"
        }
      ],
      "stateMutability": "nonpayable",
      "type": "constructor"
    },
    {
      "anonymous": false,
      "inputs": [
        {
          "indexed": true,
          "internalType": "address",
          "name": "account",
          "type": "address"
        },
        {
          "indexed": false,
          "internalType": "uint256",
          "name": "amount",
          "type": "uint256"
        },
        {
          "indexed": false,
          "internalType": "uint256",
          "name": "rateCumulative",
          "type": "uint256"
        },
        {
          "indexed": false,
          "internalType": "uint256",
          "name": "reward",
          "type": "uint256"
        },
        {
          "indexed": false,
          "internalType": "uint256",
          "name": "timestamp",
          "type": "uint256"
        }
      ],
      "name": "ClaimReward",
      "type": "event"
    },
    {
      "anonymous": false,
      "inputs": [
        {
          "indexed": false,
          "internalType": "uint64",
          "name": "rewards",
          "type": "uint64"
        },
        {
          "indexed": false,
          "internalType": "uint64",
          "name": "duration",
          "type": "uint64"
        },
        {
          "indexed": false,
          "internalType": "uint256",
          "name": "timestamp",
          "type": "uint256"
        }
      ],
      "name": "SetRewards",
      "type": "event"
    },
    {
      "anonymous": false,
      "inputs": [
        {
          "indexed": true,
          "internalType": "address",
          "name": "account",
          "type": "address"
        },
        {
          "indexed": false,
          "internalType": "uint256",
          "name": "amount",
          "type": "uint256"
        },
        {
          "indexed": false,
          "internalType": "uint256",
          "name": "rateCumulative",
          "type": "uint256"
        },
        {
          "indexed": false,
          "internalType": "uint256",
          "name": "reward",
          "type": "uint256"
        },
        {
          "indexed": false,
          "internalType": "uint256",
          "name": "timestamp",
          "type": "uint256"
        }
      ],
      "name": "Stake",
      "type": "event"
    },
    {
      "anonymous": false,
      "inputs": [
        {
          "indexed": true,
          "internalType": "address",
          "name": "account",
          "type": "address"
        },
        {
          "indexed": false,
          "internalType": "uint256",
          "name": "amount",
          "type": "uint256"
        },
        {
          "indexed": false,
          "internalType": "uint256",
          "name": "rateCumulative",
          "type": "uint256"
        },
        {
          "indexed": false,
          "internalType": "uint256",
          "name": "reward",
          "type": "uint256"
        },
        {
          "indexed": false,
          "internalType": "uint256",
          "name": "timestamp",
          "type": "uint256"
        }
      ],
      "name": "Unstake",
      "type": "event"
    },
    {
      "anonymous": false,
      "inputs": [
        {
          "indexed": true,
          "internalType": "address",
          "name": "pool",
          "type": "address"
        },
        {
          "indexed": true,
          "internalType": "address",
          "name": "account",
          "type": "address"
        },
        {
          "indexed": false,
          "internalType": "uint256",
          "name": "amount",
          "type": "uint256"
        }
      ],
      "name": "Unvote",
      "type": "event"
    },
    {
      "anonymous": false,
      "inputs": [
        {
          "indexed": true,
          "internalType": "address",
          "name": "account",
          "type": "address"
        }
      ],
      "name": "UnvoteAll",
      "type": "event"
    },
    {
      "anonymous": false,
      "inputs": [
        {
          "indexed": true,
          "internalType": "address",
          "name": "pool",
          "type": "address"
        },
        {
          "indexed": false,
          "internalType": "bool",
          "name": "bUse",
          "type": "bool"
        }
      ],
      "name": "UsePool",
      "type": "event"
    },
    {
      "anonymous": false,
      "inputs": [
        {
          "indexed": true,
          "internalType": "address",
          "name": "pool",
          "type": "address"
        },
        {
          "indexed": true,
          "internalType": "address",
          "name": "account",
          "type": "address"
        },
        {
          "indexed": false,
          "internalType": "uint256",
          "name": "amount",
          "type": "uint256"
        }
      ],
      "name": "Vote",
      "type": "event"
    },
    {
      "inputs": [],
      "name": "ORN",
      "outputs": [
        {
          "internalType": "address",
          "name": "",
          "type": "address"
        }
      ],
      "stateMutability": "view",
      "type": "function"
    },
    {
      "inputs": [
        {
          "internalType": "address",
          "name": "pool",
          "type": "address"
        }
      ],
      "name": "addPool",
      "outputs": [],
      "stateMutability": "nonpayable",
      "type": "function"
    },
    {
      "inputs": [
        {
          "internalType": "address",
          "name": "pool",
          "type": "address"
        },
        {
          "internalType": "address",
          "name": "farmv2",
          "type": "address"
        }
      ],
      "name": "addPool2",
      "outputs": [],
      "stateMutability": "nonpayable",
      "type": "function"
    },
    {
      "inputs": [],
      "name": "allStake",
      "outputs": [
        {
          "internalType": "uint256",
          "name": "",
          "type": "uint256"
        }
      ],
      "stateMutability": "view",
      "type": "function"
    },
    {
      "inputs": [],
      "name": "calcNewRate",
      "outputs": [
        {
          "internalType": "uint256",
          "name": "",
          "type": "uint256"
        }
      ],
      "stateMutability": "view",
      "type": "function"
    },
    {
      "inputs": [
        {
          "internalType": "address",
          "name": "pool",
          "type": "address"
        },
        {
          "internalType": "address",
          "name": "to",
          "type": "address"
        },
        {
          "internalType": "uint256",
          "name": "amount",
          "type": "uint256"
        }
      ],
      "name": "claimReward",
      "outputs": [],
      "stateMutability": "nonpayable",
      "type": "function"
    },
    {
      "inputs": [],
      "name": "countPool",
      "outputs": [
        {
          "internalType": "uint256",
          "name": "",
          "type": "uint256"
        }
      ],
      "stateMutability": "view",
      "type": "function"
    },
    {
      "inputs": [
        {
          "internalType": "address",
          "name": "pool",
          "type": "address"
        }
      ],
      "name": "deletePool",
      "outputs": [],
      "stateMutability": "nonpayable",
      "type": "function"
    },
    {
      "inputs": [
        {
          "internalType": "address",
          "name": "account",
          "type": "address"
        }
      ],
      "name": "getReward",
      "outputs": [
        {
          "internalType": "uint256",
          "name": "",
          "type": "uint256"
        }
      ],
      "stateMutability": "view",
      "type": "function"
    },
    {
      "inputs": [
        {
          "internalType": "address",
          "name": "account",
          "type": "address"
        }
      ],
      "name": "getRewardCumulative",
      "outputs": [
        {
          "internalType": "uint256",
          "name": "",
          "type": "uint256"
        }
      ],
      "stateMutability": "view",
      "type": "function"
    },
    {
      "inputs": [],
      "name": "getRewardCumulativeAll",
      "outputs": [
        {
          "internalType": "uint256",
          "name": "",
          "type": "uint256"
        }
      ],
      "stateMutability": "view",
      "type": "function"
    },
    {
      "inputs": [
        {
          "internalType": "address",
          "name": "account",
          "type": "address"
        }
      ],
      "name": "getRewardWithdraw",
      "outputs": [
        {
          "internalType": "uint256",
          "name": "",
          "type": "uint256"
        }
      ],
      "stateMutability": "view",
      "type": "function"
    },
    {
      "inputs": [
        {
          "internalType": "address",
          "name": "account",
          "type": "address"
        }
      ],
      "name": "getStake",
      "outputs": [
        {
          "internalType": "uint256",
          "name": "",
          "type": "uint256"
        }
      ],
      "stateMutability": "view",
      "type": "function"
    },
    {
      "inputs": [
        {
          "internalType": "address",
          "name": "account",
          "type": "address"
        }
      ],
      "name": "havePool",
      "outputs": [
        {
          "internalType": "bool",
          "name": "",
          "type": "bool"
        }
      ],
      "stateMutability": "view",
      "type": "function"
    },
    {
      "inputs": [
        {
          "internalType": "address",
          "name": "",
          "type": "address"
        }
      ],
      "name": "poolIndex",
      "outputs": [
        {
          "internalType": "uint256",
          "name": "",
          "type": "uint256"
        }
      ],
      "stateMutability": "view",
      "type": "function"
    },
    {
      "inputs": [
        {
          "internalType": "uint256",
          "name": "",
          "type": "uint256"
        }
      ],
      "name": "poolList",
      "outputs": [
        {
          "internalType": "address",
          "name": "",
          "type": "address"
        }
      ],
      "stateMutability": "view",
      "type": "function"
    },
    {
      "inputs": [
        {
          "internalType": "address",
          "name": "",
          "type": "address"
        }
      ],
      "name": "poolStake",
      "outputs": [
        {
          "internalType": "uint256",
          "name": "stake",
          "type": "uint256"
        },
        {
          "internalType": "uint256",
          "name": "rateCumulative",
          "type": "uint256"
        },
        {
          "internalType": "uint256",
          "name": "reward",
          "type": "uint256"
        },
        {
          "internalType": "uint256",
          "name": "rewardWithdraw",
          "type": "uint256"
        }
      ],
      "stateMutability": "view",
      "type": "function"
    },
    {
      "inputs": [],
      "name": "rateCumulative",
      "outputs": [
        {
          "internalType": "uint256",
          "name": "",
          "type": "uint256"
        }
      ],
      "stateMutability": "view",
      "type": "function"
    },
    {
      "inputs": [],
      "name": "rateTime",
      "outputs": [
        {
          "internalType": "uint256",
          "name": "",
          "type": "uint256"
        }
      ],
      "stateMutability": "view",
      "type": "function"
    },
    {
      "inputs": [],
      "name": "rewardRate",
      "outputs": [
        {
          "internalType": "uint256",
          "name": "",
          "type": "uint256"
        }
      ],
      "stateMutability": "view",
      "type": "function"
    },
    {
      "inputs": [
        {
          "internalType": "uint64",
          "name": "rewards",
          "type": "uint64"
        },
        {
          "internalType": "uint64",
          "name": "duration",
          "type": "uint64"
        }
      ],
      "name": "setRewards",
      "outputs": [],
      "stateMutability": "nonpayable",
      "type": "function"
    },
    {
      "inputs": [
        {
          "internalType": "address",
          "name": "addr",
          "type": "address"
        },
        {
          "internalType": "bool",
          "name": "bUse",
          "type": "bool"
        }
      ],
      "name": "setSmart",
      "outputs": [],
      "stateMutability": "nonpayable",
      "type": "function"
    },
    {
      "inputs": [],
      "name": "smartOwner",
      "outputs": [
        {
          "internalType": "address",
          "name": "",
          "type": "address"
        }
      ],
      "stateMutability": "view",
      "type": "function"
    },
    {
      "inputs": [
        {
          "internalType": "address",
          "name": "",
          "type": "address"
        }
      ],
      "name": "smarts",
      "outputs": [
        {
          "internalType": "bool",
          "name": "",
          "type": "bool"
        }
      ],
      "stateMutability": "view",
      "type": "function"
    },
    {
      "inputs": [
        {
          "internalType": "address",
          "name": "pool",
          "type": "address"
        },
        {
          "internalType": "uint256",
          "name": "amount",
          "type": "uint256"
        }
      ],
      "name": "unvote",
      "outputs": [],
      "stateMutability": "nonpayable",
      "type": "function"
    },
    {
      "inputs": [
        {
          "internalType": "address",
          "name": "account",
          "type": "address"
        }
      ],
      "name": "unvoteAll",
      "outputs": [],
      "stateMutability": "nonpayable",
      "type": "function"
    },
    {
      "inputs": [
        {
          "internalType": "address",
          "name": "",
          "type": "address"
        }
      ],
      "name": "users",
      "outputs": [
        {
          "internalType": "uint256",
          "name": "",
          "type": "uint256"
        }
      ],
      "stateMutability": "view",
      "type": "function"
    },
    {
      "inputs": [
        {
          "internalType": "address",
          "name": "",
          "type": "address"
        },
        {
          "internalType": "address",
          "name": "",
          "type": "address"
        }
      ],
      "name": "usersPool",
      "outputs": [
        {
          "internalType": "uint256",
          "name": "",
          "type": "uint256"
        }
      ],
      "stateMutability": "view",
      "type": "function"
    },
    {
      "inputs": [],
      "name": "veORN",
      "outputs": [
        {
          "internalType": "address",
          "name": "",
          "type": "address"
        }
      ],
      "stateMutability": "view",
      "type": "function"
    },
    {
      "inputs": [
        {
          "internalType": "address",
          "name": "pool",
          "type": "address"
        },
        {
          "internalType": "uint256",
          "name": "amount",
          "type": "uint256"
        }
      ],
      "name": "vote",
      "outputs": [],
      "stateMutability": "nonpayable",
      "type": "function"
    },
    {
      "inputs": [
        {
          "internalType": "address[]",
          "name": "pools",
          "type": "address[]"
        },
        {
          "internalType": "uint256[]",
          "name": "amounts",
          "type": "uint256[]"
        }
      ],
      "name": "voteArr",
      "outputs": [],
      "stateMutability": "nonpayable",
      "type": "function"
    }
  ],
  "bytecode": "0x60e06040523480156200001157600080fd5b5060405162001b6238038062001b628339810160408190526200003491620000bc565b6001600160a01b038116608081905260408051634272e7d760e01b81529051634272e7d7916004808201926020929091908290030181865afa1580156200007f573d6000803e3d6000fd5b505050506040513d601f19601f82011682018060405250810190620000a59190620000bc565b6001600160a01b031660a052503360c052620000ee565b600060208284031215620000cf57600080fd5b81516001600160a01b0381168114620000e757600080fd5b9392505050565b60805160a05160c051611a136200014f600039600081816102fd01528181610636015281816109dd01528181610b080152610caa0152600081816102d601526107290152600081816103ff015281816107de0152610d790152611a136000f3fe608060405234801561001057600080fd5b50600436106101e55760003560e01c806382d692811161010f578063b2d7601f116100a2578063d6d31ae111610071578063d6d31ae1146104a3578063d914cd4b146104fa578063f9e912241461050d578063fc19fd891461053857600080fd5b8063b2d7601f1461043d578063b42754a514610445578063c00007b014610465578063cf5e551f1461047857600080fd5b8063a87430ba116100de578063a87430ba146103da578063ad8bd2c1146103fa578063b0d354ed14610421578063b2884a041461043457600080fd5b806382d692811461037f57806389b688b3146103ab57806397b0f205146103b4578063a06e9eb1146103c757600080fd5b80633f3bd330116101875780635f74bbde116101565780635f74bbde146103275780637a7664601461033a5780637b0a47ee146103635780637ba625131461036c57600080fd5b80633f3bd330146102c85780634272e7d7146102d157806349516370146102f85780635b18107d1461031f57600080fd5b80631d6e1341116101c35780631d6e13411461023857806320fb629d1461026b5780632a48235b146102745780632f2d783d146102b557600080fd5b806302aa9be2146101ea57806316cc05cd146101ff57806319287d5314610225575b600080fd5b6101fd6101f8366004611632565b61054b565b005b61021261020d36600461165c565b6105f6565b6040519081526020015b60405180910390f35b6101fd610233366004611688565b61062b565b61025b61024636600461165c565b600b6020526000908152604090205460ff1681565b604051901515815260200161021c565b61021260045481565b61029d6102823660046116bf565b6007602052600090815260409020546001600160a01b031681565b6040516001600160a01b03909116815260200161021c565b6101fd6102c33660046116d8565b6106a7565b61021260035481565b61029d7f000000000000000000000000000000000000000000000000000000000000000081565b61029d7f000000000000000000000000000000000000000000000000000000000000000081565b610212610754565b6101fd610335366004611632565b610791565b61021261034836600461165c565b6001600160a01b031660009081526002602052604090205490565b61021260005481565b6101fd61037a366004611714565b61096a565b61021261038d36600461165c565b6001600160a01b031660009081526002602052604090206003015490565b61021260015481565b6101fd6103c236600461165c565b6109d2565b6101fd6103d536600461175f565b610afd565b6102126103e836600461165c565b60096020526000908152604090205481565b61029d7f000000000000000000000000000000000000000000000000000000000000000081565b6101fd61042f3660046117d5565b610b53565b61021260065481565b610212610bde565b61021261045336600461165c565b60086020526000908152604090205481565b61021261047336600461165c565b610c20565b610212610486366004611714565b600a60209081526000928352604080842090915290825290205481565b6104da6104b136600461165c565b600260208190526000918252604090912080546001820154928201546003909201549092919084565b60408051948552602085019390935291830152606082015260800161021c565b6101fd61050836600461165c565b610c9f565b61025b61051b36600461165c565b6001600160a01b0316600090815260086020526040902054151590565b6101fd61054636600461165c565b610d6e565b336000908152600960205260408120805483929061056a908490611857565b9091555050336000908152600a602090815260408083206001600160a01b0386168452909152812080548392906105a2908490611857565b909155506105b290508282610f19565b60405181815233906001600160a01b038416907faa0e554f781c3c3b2be110a0557f260f11af9a8aa2c64bc1e7a31dbb21e32fa29060200160405180910390a35050565b6001600160a01b03811660009081526002602052604081206003015461061b83610c20565b610625919061186e565b92915050565b336001600160a01b037f0000000000000000000000000000000000000000000000000000000000000000161461067c5760405162461bcd60e51b815260040161067390611886565b60405180910390fd5b6001600160a01b03919091166000908152600b60205260409020805460ff1916911515919091179055565b336000908152600b602052604090205460ff1661071a5760405162461bcd60e51b815260206004820152602b60248201527f636c61696d5265776172643a2063616c6c6572206e6f7420666f756e6420696e60448201526a081dda1a5d19481b1a5cdd60aa1b6064820152608401610673565b610724838261109a565b61074f7f000000000000000000000000000000000000000000000000000000000000000083836111f8565b505050565b6001546000908190156107745760015460005461077191906118bd565b90505b6004546107819042611857565b61078b90826118df565b91505090565b6001600160a01b0382166000908152600860205260409020546107c65760405162461bcd60e51b8152600401610673906118fe565b60405163138cce3960e21b81523360048201526000907f00000000000000000000000000000000000000000000000000000000000000006001600160a01b031690634e3338e490602401602060405180830381865afa15801561082d573d6000803e3d6000fd5b505050506040513d601f19601f820116820180604052508101906108519190611926565b3360009081526009602052604090205490915061086e838261186e565b8210156108bd5760405162461bcd60e51b815260206004820152601860248201527f4572726f7220757365722076654f524e2062616c616e636500000000000000006044820152606401610673565b33600090815260096020526040812080548592906108dc90849061186e565b9091555050336000908152600a602090815260408083206001600160a01b03881684529091528120805485929061091490849061186e565b90915550610924905084846112f1565b60405183815233906001600160a01b038616907f66a9138482c99e9baf08860110ef332cc0c23b4a199a53593d8db0fc8f96fbfc9060200160405180910390a350505050565b61097382610c9f565b604051631ee1f46360e21b81526001600160a01b038381166004830152821690637b87d18c90602401600060405180830381600087803b1580156109b657600080fd5b505af11580156109ca573d6000803e3d6000fd5b505050505050565b336001600160a01b037f00000000000000000000000000000000000000000000000000000000000000001614610a1a5760405162461bcd60e51b815260040161067390611886565b6001600160a01b03811660009081526008602052604090205480610a505760405162461bcd60e51b8152600401610673906118fe565b6001600160a01b0382811660009081526008602090815260408083208390556006805484526007909252808320548584528184208054919095166001600160a01b031991821617909455815483528220805490931690925581549190610ab58361193f565b9091555050604051600081526001600160a01b038316907f378333f475b147b091d9370fe9192b22d3701547af05b7d0d5b37bb90eb1ee7b9060200160405180910390a25050565b336001600160a01b037f00000000000000000000000000000000000000000000000000000000000000001614610b455760405162461bcd60e51b815260040161067390611886565b610b4f8282611470565b5050565b828114610b725760405162461bcd60e51b8152600401610673906118fe565b60005b83811015610bd757610bc5858583818110610b9257610b92611956565b9050602002016020810190610ba7919061165c565b848484818110610bb957610bb9611956565b90506020020135610791565b80610bcf8161196c565b915050610b75565b5050505050565b600080610be9610754565b90506b1d6329f1c35ca4bfabb9f56160281b60015482610c0991906118df565b610c1391906118bd565b60055461078b919061186e565b6001600160a01b03811660009081526002602081815260408084208151608081018352815481526001820154938101939093529283015490820152600390910154606082015281610c6f610754565b600354610c7c919061186e565b90508160600151610c8d838361155d565b610c979190611857565b949350505050565b336001600160a01b037f00000000000000000000000000000000000000000000000000000000000000001614610ce75760405162461bcd60e51b815260040161067390611886565b60068054906000610cf78361196c565b90915550506006546001600160a01b0382166000818152600860209081526040808320859055938252600781529083902080546001600160a01b0319168317905591516001815290917f378333f475b147b091d9370fe9192b22d3701547af05b7d0d5b37bb90eb1ee7b910160405180910390a250565b336001600160a01b037f0000000000000000000000000000000000000000000000000000000000000000161480610dad5750336001600160a01b038216145b610e0d5760405162461bcd60e51b815260206004820152602b60248201527f756e766f7465416c6c3a2063616c6c6572206973206e6f74207468652076654f60448201526a14938818dbdb9d1c9858dd60aa1b6064820152608401610673565b6001600160a01b0381166000908152600960205260409020548015610b4f5760065460015b818111610ed2576000818152600760209081526040808320546001600160a01b038881168552600a845282852091168085529252909120548015610ebd576001600160a01b038087166000908152600a60209081526040808320938616835292905290812055610ea28282610f19565b610eac8186611857565b945084600003610ebd575050610ed2565b50508080610eca9061196c565b915050610e32565b506001600160a01b038316600081815260096020526040808220829055517f6c0ea4a9e85d6833d8071c741ee831d8793bad403b0de52072f8932ca1df8b819190a2505050565b610f216115ac565b6001600160a01b0382166000908152600260208181526040928390208351608081018552815481526001820154928101929092529182015492810192909252600390810154606083015254610f7790829061155d565b60408201528051821115610fc45760405162461bcd60e51b8152602060048201526014602482015273115c9c9bdc881d5b9cdd185ad948185b5bdd5b9d60621b6044820152606401610673565b8181600001818151610fd69190611857565b9052506003805460208084019182526001600160a01b038616600090815260029182905260408082208651815593516001808601919091559086015192840192909255606085015192909301919091558054849290611036908490611857565b90915550506020808201516040808401518151868152938401929092528201524260608201526001600160a01b038416907f05b744e3e9358bc00ba3cc0c6606a4d6536134dba00b2d2ee4b5de169acd6427906080015b60405180910390a2505050565b6110a26115ac565b6001600160a01b03821660009081526002602081815260409283902083516080810185528154815260018201549281019290925291820154928101929092526003908101546060830152546110f890829061155d565b60408201819052606082015183916111109190611857565b10156111535760405162461bcd60e51b8152602060048201526012602482015271115c9c9bdc8818db185a5b48185b5bdd5b9d60721b6044820152606401610673565b8181606001818151611165919061186e565b9052506003805460208381019182526001600160a01b03861660008181526002808452604091829020875181559451600186018190558288015191860182905560608089015196909701959095558151888152938401949094528201929092524292810192909252907f483e3ca361c7b5e5a1f600e9c06025be8c62aa815785f54efa3b1847610909669060800161108d565b604080516001600160a01b038481166024830152604480830185905283518084039091018152606490920183526020820180516001600160e01b031663a9059cbb60e01b17905291516000928392908716916112549190611985565b6000604051808303816000865af19150503d8060008114611291576040519150601f19603f3d011682016040523d82523d6000602084013e611296565b606091505b50915091508180156112c05750805115806112c05750808060200190518101906112c091906119c0565b610bd75760405162461bcd60e51b815260206004820152600260248201526114d560f21b6044820152606401610673565b600081116113415760405162461bcd60e51b815260206004820152601960248201527f5f7374616b653a207a65726f207374616b6520616d6f756e74000000000000006044820152606401610673565b6113496115ac565b6001600160a01b038216600090815260026020818152604092839020835160808101855281548152600182015492810192909252918201549281019290925260039081015460608301525461139f90829061155d565b60408201528051829082906113b590839061186e565b9052506003805460208084019182526001600160a01b03861660009081526002918290526040808220865181559351600180860191909155908601519284019290925560608501519290930191909155805484929061141590849061186e565b90915550506020808201516040808401518151868152938401929092528201524260608201526001600160a01b038416907f2720efa4b2dd4f3f8a347da3cbd290a522e9432da9072c5b8e6300496fdde2829060800161108d565b60008167ffffffffffffffff16116114ca5760405162461bcd60e51b815260206004820152601a60248201527f5f736574526577617264733a207a65726f206475726174696f6e0000000000006044820152606401610673565b6114d26115ac565b8067ffffffffffffffff168267ffffffffffffffff166b1d6329f1c35ca4bfabb9f56160281b61150291906118df565b61150c91906118bd565b6000556040805167ffffffffffffffff848116825283166020820152428183015290517ff79026a1df5adbbf92e5c3a6a4885053cd8046424bbb028da33a750ca15082bd9181900360600190a15050565b815160208301516000916b1d6329f1c35ca4bfabb9f56160281b916115829085611857565b61158c91906118df565b61159691906118bd565b83604001516115a5919061186e565b9392505050565b60006115b6610754565b90506b1d6329f1c35ca4bfabb9f56160281b600154826115d691906118df565b6115e091906118bd565b600560008282546115f1919061186e565b92505081905550806003600082825461160a919061186e565b90915550504260045550565b80356001600160a01b038116811461162d57600080fd5b919050565b6000806040838503121561164557600080fd5b61164e83611616565b946020939093013593505050565b60006020828403121561166e57600080fd5b6115a582611616565b801515811461168557600080fd5b50565b6000806040838503121561169b57600080fd5b6116a483611616565b915060208301356116b481611677565b809150509250929050565b6000602082840312156116d157600080fd5b5035919050565b6000806000606084860312156116ed57600080fd5b6116f684611616565b925061170460208501611616565b9150604084013590509250925092565b6000806040838503121561172757600080fd5b61173083611616565b915061173e60208401611616565b90509250929050565b803567ffffffffffffffff8116811461162d57600080fd5b6000806040838503121561177257600080fd5b61177b83611747565b915061173e60208401611747565b60008083601f84011261179b57600080fd5b50813567ffffffffffffffff8111156117b357600080fd5b6020830191508360208260051b85010111156117ce57600080fd5b9250929050565b600080600080604085870312156117eb57600080fd5b843567ffffffffffffffff8082111561180357600080fd5b61180f88838901611789565b9096509450602087013591508082111561182857600080fd5b5061183587828801611789565b95989497509550505050565b634e487b7160e01b600052601160045260246000fd5b60008282101561186957611869611841565b500390565b6000821982111561188157611881611841565b500190565b60208082526017908201527f43616c6c6572206973206e6f7420746865206f776e6572000000000000000000604082015260600190565b6000826118da57634e487b7160e01b600052601260045260246000fd5b500490565b60008160001904831182151516156118f9576118f9611841565b500290565b6020808252600e908201526d141bdbdb081b9bdd08199bdd5b9960921b604082015260600190565b60006020828403121561193857600080fd5b5051919050565b60008161194e5761194e611841565b506000190190565b634e487b7160e01b600052603260045260246000fd5b60006001820161197e5761197e611841565b5060010190565b6000825160005b818110156119a6576020818601810151858301520161198c565b818111156119b5576000828501525b509190910192915050565b6000602082840312156119d257600080fd5b81516115a58161167756fea2646970667358221220f1834a722f48a9876452465e7721629121ff2ca1cc80f38af59ef5da5925930d64736f6c634300080d0033",
  "linkReferences": {},
  "deployedLinkReferences": {}
}