{
  "_format": "hh-sol-artifact-1",
  "contractName": "veORN",
  "sourceName": "contracts/veORN.sol",
  "abi": [
    {
      "inputs": [
        {
          "internalType": "address",
          "name": "ORN_",
          "type": "address"
        }
      ],
      "stateMutability": "nonpayable",
      "type": "constructor"
    },
    {
      "anonymous": false,
      "inputs": [
        {
          "indexed": true,
          "internalType": "address",
          "name": "account",
          "type": "address"
        },
        {
          "indexed": false,
          "internalType": "uint256",
          "name": "amount",
          "type": "uint256"
        },
        {
          "indexed": false,
          "internalType": "uint256",
          "name": "rateCumulative",
          "type": "uint256"
        },
        {
          "indexed": false,
          "internalType": "uint256",
          "name": "reward",
          "type": "uint256"
        },
        {
          "indexed": false,
          "internalType": "uint256",
          "name": "timestamp",
          "type": "uint256"
        }
      ],
      "name": "ClaimReward",
      "type": "event"
    },
    {
      "anonymous": false,
      "inputs": [
        {
          "indexed": true,
          "internalType": "address",
          "name": "provider",
          "type": "address"
        },
        {
          "indexed": false,
          "internalType": "uint256",
          "name": "value",
          "type": "uint256"
        },
        {
          "indexed": true,
          "internalType": "uint256",
          "name": "locktime",
          "type": "uint256"
        },
        {
          "indexed": false,
          "internalType": "int128",
          "name": "mode",
          "type": "int128"
        },
        {
          "indexed": false,
          "internalType": "uint256",
          "name": "ts",
          "type": "uint256"
        }
      ],
      "name": "Deposit",
      "type": "event"
    },
    {
      "anonymous": false,
      "inputs": [
        {
          "indexed": false,
          "internalType": "uint64",
          "name": "rewards",
          "type": "uint64"
        },
        {
          "indexed": false,
          "internalType": "uint64",
          "name": "duration",
          "type": "uint64"
        },
        {
          "indexed": false,
          "internalType": "uint256",
          "name": "timestamp",
          "type": "uint256"
        }
      ],
      "name": "SetRewards",
      "type": "event"
    },
    {
      "anonymous": false,
      "inputs": [
        {
          "indexed": true,
          "internalType": "address",
          "name": "account",
          "type": "address"
        },
        {
          "indexed": false,
          "internalType": "uint256",
          "name": "amount",
          "type": "uint256"
        },
        {
          "indexed": false,
          "internalType": "uint256",
          "name": "rateCumulative",
          "type": "uint256"
        },
        {
          "indexed": false,
          "internalType": "uint256",
          "name": "reward",
          "type": "uint256"
        },
        {
          "indexed": false,
          "internalType": "uint256",
          "name": "timestamp",
          "type": "uint256"
        }
      ],
      "name": "Stake",
      "type": "event"
    },
    {
      "anonymous": false,
      "inputs": [
        {
          "indexed": true,
          "internalType": "address",
          "name": "account",
          "type": "address"
        },
        {
          "indexed": false,
          "internalType": "uint256",
          "name": "amount",
          "type": "uint256"
        },
        {
          "indexed": false,
          "internalType": "uint256",
          "name": "rateCumulative",
          "type": "uint256"
        },
        {
          "indexed": false,
          "internalType": "uint256",
          "name": "reward",
          "type": "uint256"
        },
        {
          "indexed": false,
          "internalType": "uint256",
          "name": "timestamp",
          "type": "uint256"
        }
      ],
      "name": "Unstake",
      "type": "event"
    },
    {
      "anonymous": false,
      "inputs": [
        {
          "indexed": true,
          "internalType": "address",
          "name": "provider",
          "type": "address"
        },
        {
          "indexed": false,
          "internalType": "uint256",
          "name": "value",
          "type": "uint256"
        },
        {
          "indexed": false,
          "internalType": "uint256",
          "name": "ts",
          "type": "uint256"
        }
      ],
      "name": "Withdraw",
      "type": "event"
    },
    {
      "inputs": [],
      "name": "INITIAL_VEORN_ADJUSTMENT_FACTOR",
      "outputs": [
        {
          "internalType": "uint128",
          "name": "",
          "type": "uint128"
        }
      ],
      "stateMutability": "view",
      "type": "function"
    },
    {
      "inputs": [],
      "name": "ORN",
      "outputs": [
        {
          "internalType": "address",
          "name": "",
          "type": "address"
        }
      ],
      "stateMutability": "view",
      "type": "function"
    },
    {
      "inputs": [],
      "name": "START_TIME",
      "outputs": [
        {
          "internalType": "uint256",
          "name": "",
          "type": "uint256"
        }
      ],
      "stateMutability": "view",
      "type": "function"
    },
    {
      "inputs": [],
      "name": "allStake",
      "outputs": [
        {
          "internalType": "uint256",
          "name": "",
          "type": "uint256"
        }
      ],
      "stateMutability": "view",
      "type": "function"
    },
    {
      "inputs": [
        {
          "internalType": "uint256",
          "name": "amount",
          "type": "uint256"
        },
        {
          "internalType": "uint256",
          "name": "time",
          "type": "uint256"
        }
      ],
      "name": "amountAt",
      "outputs": [
        {
          "internalType": "uint256",
          "name": "",
          "type": "uint256"
        }
      ],
      "stateMutability": "pure",
      "type": "function"
    },
    {
      "inputs": [
        {
          "internalType": "uint128",
          "name": "amount_token",
          "type": "uint128"
        },
        {
          "internalType": "uint256",
          "name": "time_lock",
          "type": "uint256"
        }
      ],
      "name": "amountByTokenAt",
      "outputs": [
        {
          "internalType": "uint128",
          "name": "balance",
          "type": "uint128"
        }
      ],
      "stateMutability": "view",
      "type": "function"
    },
    {
      "inputs": [
        {
          "internalType": "address",
          "name": "account",
          "type": "address"
        },
        {
          "internalType": "uint256",
          "name": "time",
          "type": "uint256"
        }
      ],
      "name": "balanceOf",
      "outputs": [
        {
          "internalType": "uint256",
          "name": "",
          "type": "uint256"
        }
      ],
      "stateMutability": "view",
      "type": "function"
    },
    {
      "inputs": [
        {
          "internalType": "address",
          "name": "account",
          "type": "address"
        }
      ],
      "name": "balanceOf",
      "outputs": [
        {
          "internalType": "uint256",
          "name": "",
          "type": "uint256"
        }
      ],
      "stateMutability": "view",
      "type": "function"
    },
    {
      "inputs": [
        {
          "internalType": "address",
          "name": "account",
          "type": "address"
        }
      ],
      "name": "balanceOf0",
      "outputs": [
        {
          "internalType": "uint256",
          "name": "",
          "type": "uint256"
        }
      ],
      "stateMutability": "view",
      "type": "function"
    },
    {
      "inputs": [
        {
          "internalType": "address",
          "name": "user",
          "type": "address"
        },
        {
          "components": [
            {
              "internalType": "uint48",
              "name": "timestamp",
              "type": "uint48"
            },
            {
              "internalType": "uint208",
              "name": "amountTW",
              "type": "uint208"
            }
          ],
          "internalType": "struct ITWBalance.TWItem",
          "name": "itemStart",
          "type": "tuple"
        }
      ],
      "name": "balanceOfAvg",
      "outputs": [
        {
          "internalType": "uint256",
          "name": "",
          "type": "uint256"
        }
      ],
      "stateMutability": "view",
      "type": "function"
    },
    {
      "inputs": [
        {
          "internalType": "address",
          "name": "user",
          "type": "address"
        }
      ],
      "name": "balanceOfTW",
      "outputs": [
        {
          "components": [
            {
              "internalType": "uint48",
              "name": "timestamp",
              "type": "uint48"
            },
            {
              "internalType": "uint208",
              "name": "amountTW",
              "type": "uint208"
            }
          ],
          "internalType": "struct ITWBalance.TWItem",
          "name": "",
          "type": "tuple"
        }
      ],
      "stateMutability": "view",
      "type": "function"
    },
    {
      "inputs": [
        {
          "internalType": "address",
          "name": "account",
          "type": "address"
        }
      ],
      "name": "balanceTokenOf",
      "outputs": [
        {
          "internalType": "uint256",
          "name": "",
          "type": "uint256"
        }
      ],
      "stateMutability": "view",
      "type": "function"
    },
    {
      "inputs": [],
      "name": "calcNewRate",
      "outputs": [
        {
          "internalType": "uint256",
          "name": "",
          "type": "uint256"
        }
      ],
      "stateMutability": "view",
      "type": "function"
    },
    {
      "inputs": [],
      "name": "claimReward",
      "outputs": [],
      "stateMutability": "nonpayable",
      "type": "function"
    },
    {
      "inputs": [
        {
          "internalType": "uint256",
          "name": "_value",
          "type": "uint256"
        },
        {
          "internalType": "uint256",
          "name": "unlock_time",
          "type": "uint256"
        }
      ],
      "name": "create_lock",
      "outputs": [],
      "stateMutability": "nonpayable",
      "type": "function"
    },
    {
      "inputs": [
        {
          "internalType": "uint256",
          "name": "_value",
          "type": "uint256"
        },
        {
          "internalType": "uint256",
          "name": "unlock_period",
          "type": "uint256"
        }
      ],
      "name": "create_lock_period",
      "outputs": [],
      "stateMutability": "nonpayable",
      "type": "function"
    },
    {
      "inputs": [],
      "name": "decimals",
      "outputs": [
        {
          "internalType": "uint8",
          "name": "",
          "type": "uint8"
        }
      ],
      "stateMutability": "view",
      "type": "function"
    },
    {
      "inputs": [
        {
          "internalType": "uint256",
          "name": "time",
          "type": "uint256"
        }
      ],
      "name": "getK",
      "outputs": [
        {
          "internalType": "uint128",
          "name": "",
          "type": "uint128"
        }
      ],
      "stateMutability": "pure",
      "type": "function"
    },
    {
      "inputs": [
        {
          "internalType": "address",
          "name": "account",
          "type": "address"
        }
      ],
      "name": "getReward",
      "outputs": [
        {
          "internalType": "uint256",
          "name": "",
          "type": "uint256"
        }
      ],
      "stateMutability": "view",
      "type": "function"
    },
    {
      "inputs": [
        {
          "internalType": "address",
          "name": "account",
          "type": "address"
        }
      ],
      "name": "getRewardCumulative",
      "outputs": [
        {
          "internalType": "uint256",
          "name": "",
          "type": "uint256"
        }
      ],
      "stateMutability": "view",
      "type": "function"
    },
    {
      "inputs": [],
      "name": "getRewardCumulativeAll",
      "outputs": [
        {
          "internalType": "uint256",
          "name": "",
          "type": "uint256"
        }
      ],
      "stateMutability": "view",
      "type": "function"
    },
    {
      "inputs": [
        {
          "internalType": "address",
          "name": "account",
          "type": "address"
        }
      ],
      "name": "getRewardWithdraw",
      "outputs": [
        {
          "internalType": "uint256",
          "name": "",
          "type": "uint256"
        }
      ],
      "stateMutability": "view",
      "type": "function"
    },
    {
      "inputs": [
        {
          "internalType": "address",
          "name": "account",
          "type": "address"
        }
      ],
      "name": "getStake",
      "outputs": [
        {
          "internalType": "uint256",
          "name": "",
          "type": "uint256"
        }
      ],
      "stateMutability": "view",
      "type": "function"
    },
    {
      "inputs": [
        {
          "internalType": "uint256",
          "name": "_value",
          "type": "uint256"
        }
      ],
      "name": "increase_amount",
      "outputs": [],
      "stateMutability": "nonpayable",
      "type": "function"
    },
    {
      "inputs": [
        {
          "internalType": "uint256",
          "name": "unlock_period",
          "type": "uint256"
        }
      ],
      "name": "increase_unlock_period",
      "outputs": [],
      "stateMutability": "nonpayable",
      "type": "function"
    },
    {
      "inputs": [
        {
          "internalType": "uint256",
          "name": "unlock_time",
          "type": "uint256"
        }
      ],
      "name": "increase_unlock_time",
      "outputs": [],
      "stateMutability": "nonpayable",
      "type": "function"
    },
    {
      "inputs": [
        {
          "internalType": "address",
          "name": "account",
          "type": "address"
        }
      ],
      "name": "lockTime",
      "outputs": [
        {
          "internalType": "uint48",
          "name": "",
          "type": "uint48"
        }
      ],
      "stateMutability": "view",
      "type": "function"
    },
    {
      "inputs": [],
      "name": "name",
      "outputs": [
        {
          "internalType": "string",
          "name": "",
          "type": "string"
        }
      ],
      "stateMutability": "pure",
      "type": "function"
    },
    {
      "inputs": [
        {
          "internalType": "address",
          "name": "",
          "type": "address"
        }
      ],
      "name": "poolStake",
      "outputs": [
        {
          "internalType": "uint256",
          "name": "stake",
          "type": "uint256"
        },
        {
          "internalType": "uint256",
          "name": "rateCumulative",
          "type": "uint256"
        },
        {
          "internalType": "uint256",
          "name": "reward",
          "type": "uint256"
        },
        {
          "internalType": "uint256",
          "name": "rewardWithdraw",
          "type": "uint256"
        }
      ],
      "stateMutability": "view",
      "type": "function"
    },
    {
      "inputs": [],
      "name": "rateCumulative",
      "outputs": [
        {
          "internalType": "uint256",
          "name": "",
          "type": "uint256"
        }
      ],
      "stateMutability": "view",
      "type": "function"
    },
    {
      "inputs": [],
      "name": "rateTime",
      "outputs": [
        {
          "internalType": "uint256",
          "name": "",
          "type": "uint256"
        }
      ],
      "stateMutability": "view",
      "type": "function"
    },
    {
      "inputs": [],
      "name": "rewardRate",
      "outputs": [
        {
          "internalType": "uint256",
          "name": "",
          "type": "uint256"
        }
      ],
      "stateMutability": "view",
      "type": "function"
    },
    {
      "inputs": [
        {
          "internalType": "uint64",
          "name": "rewards",
          "type": "uint64"
        },
        {
          "internalType": "uint64",
          "name": "duration",
          "type": "uint64"
        }
      ],
      "name": "setRewards",
      "outputs": [],
      "stateMutability": "nonpayable",
      "type": "function"
    },
    {
      "inputs": [
        {
          "internalType": "address",
          "name": "addrVote",
          "type": "address"
        }
      ],
      "name": "setSmartVote",
      "outputs": [],
      "stateMutability": "nonpayable",
      "type": "function"
    },
    {
      "inputs": [],
      "name": "smartOwner",
      "outputs": [
        {
          "internalType": "address",
          "name": "",
          "type": "address"
        }
      ],
      "stateMutability": "view",
      "type": "function"
    },
    {
      "inputs": [],
      "name": "smartVote",
      "outputs": [
        {
          "internalType": "address",
          "name": "",
          "type": "address"
        }
      ],
      "stateMutability": "view",
      "type": "function"
    },
    {
      "inputs": [],
      "name": "symbol",
      "outputs": [
        {
          "internalType": "string",
          "name": "",
          "type": "string"
        }
      ],
      "stateMutability": "pure",
      "type": "function"
    },
    {
      "inputs": [],
      "name": "totalSupply",
      "outputs": [
        {
          "internalType": "uint256",
          "name": "",
          "type": "uint256"
        }
      ],
      "stateMutability": "view",
      "type": "function"
    },
    {
      "inputs": [
        {
          "internalType": "uint256",
          "name": "time",
          "type": "uint256"
        }
      ],
      "name": "totalSupply",
      "outputs": [
        {
          "internalType": "uint256",
          "name": "",
          "type": "uint256"
        }
      ],
      "stateMutability": "view",
      "type": "function"
    },
    {
      "inputs": [],
      "name": "totalSupply0",
      "outputs": [
        {
          "internalType": "uint256",
          "name": "",
          "type": "uint256"
        }
      ],
      "stateMutability": "view",
      "type": "function"
    },
    {
      "inputs": [
        {
          "components": [
            {
              "internalType": "uint48",
              "name": "timestamp",
              "type": "uint48"
            },
            {
              "internalType": "uint208",
              "name": "amountTW",
              "type": "uint208"
            }
          ],
          "internalType": "struct ITWBalance.TWItem",
          "name": "itemStart",
          "type": "tuple"
        }
      ],
      "name": "totalSupplyAvg",
      "outputs": [
        {
          "internalType": "uint256",
          "name": "",
          "type": "uint256"
        }
      ],
      "stateMutability": "view",
      "type": "function"
    },
    {
      "inputs": [],
      "name": "totalSupplyTW",
      "outputs": [
        {
          "components": [
            {
              "internalType": "uint48",
              "name": "timestamp",
              "type": "uint48"
            },
            {
              "internalType": "uint208",
              "name": "amountTW",
              "type": "uint208"
            }
          ],
          "internalType": "struct ITWBalance.TWItem",
          "name": "",
          "type": "tuple"
        }
      ],
      "stateMutability": "view",
      "type": "function"
    },
    {
      "inputs": [],
      "name": "withdraw",
      "outputs": [],
      "stateMutability": "nonpayable",
      "type": "function"
    }
  ],
  "bytecode": "0x60e06040523480156200001157600080fd5b5060405162002ef038038062002ef08339810160408190526200003491620000b6565b6001600160a01b03811660a08190526040805163313ce56760e01b8152905163313ce567916004808201926020929091908290030181865afa1580156200007f573d6000803e3d6000fd5b505050506040513d601f19601f82011682018060405250810190620000a59190620000e8565b60ff16608052503360c0526200010d565b600060208284031215620000c957600080fd5b81516001600160a01b0381168114620000e157600080fd5b9392505050565b600060208284031215620000fb57600080fd5b815160ff81168114620000e157600080fd5b60805160a05160c051612d90620001606000396000818161042101528181610c000152610f1c0152600081816103e201528181610a1301528181610ff101526117900152600061036d0152612d906000f3fe608060405234801561001057600080fd5b50600436106102685760003560e01c80635c1c4b1e11610151578063b2d7601f116100c3578063da541ae511610087578063da541ae51461063f578063ddaa26ad14610652578063dde86acd1461065d578063eb5a580a1461066d578063eff7a61214610680578063fd5c91741461069357600080fd5b8063b2d7601f146105b4578063b88a802f146105bc578063bd85b039146105c4578063c00007b0146105d7578063d6d31ae1146105ea57600080fd5b80637b0a47ee116101155780637b0a47ee1461051b57806382d692811461052457806389b688b31461055057806395d89b41146102a8578063a06e9eb114610559578063a4beda631461056c57600080fd5b80635c1c4b1e1461048457806365fc38731461049757806370a08231146104aa57806373eff521146104bd5780637a766460146104f257600080fd5b80632bc1438e116101ea5780634272e7d7116101ae5780634272e7d7146103dd578063495163701461041c5780634957677c146104435780634e3338e4146104565780634f156eda146104695780635b18107d1461047c57600080fd5b80632bc1438e14610355578063313ce5671461036857806331ca4665146103a15780633ccfd60b146103cc5780633f3bd330146103d457600080fd5b806316cc05cd1161023157806316cc05cd1461031657806318160ddd1461032957806319a2b02a1461033157806320fb629d1461034457806327fc10761461034d57600080fd5b8062fdd58e1461026d578063025b74451461029357806306fdde03146102a857806312132c43146102cf578063139a75ec146102e2575b600080fd5b61028061027b366004612938565b6106a6565b6040519081526020015b60405180910390f35b6102a66102a1366004612962565b6106c3565b005b60408051808201825260058152643b32a7a92760d91b6020820152905161028a91906129b4565b6102806102dd366004612a6f565b6106d5565b6102ea6106f5565b60408051825165ffffffffffff1681526020928301516001600160d01b0316928101929092520161028a565b610280610324366004612aa3565b610754565b610280610783565b6102ea61033f366004612aa3565b61079c565b61028060065481565b600854610280565b6102a6610363366004612abe565b610811565b61038f7f000000000000000000000000000000000000000000000000000000000000000081565b60405160ff909116815260200161028a565b6103b46103af366004612abe565b610821565b6040516001600160801b03909116815260200161028a565b6102a6610873565b61028060055481565b6104047f000000000000000000000000000000000000000000000000000000000000000081565b6040516001600160a01b03909116815260200161028a565b6104047f000000000000000000000000000000000000000000000000000000000000000081565b6102a6610451366004612abe565b610a77565b610280610464366004612aa3565b610bca565b6102a6610477366004612aa3565b610bf5565b610280610c89565b610280610492366004612ad7565b610cc0565b6102a66104a5366004612962565b610cd7565b6102806104b8366004612aa3565b610f03565b6102806104cb366004612aa3565b6001600160a01b03166000908152600a60205260409020600101546001600160801b031690565b610280610500366004612aa3565b6001600160a01b031660009081526004602052604090205490565b61028060025481565b610280610532366004612aa3565b6001600160a01b031660009081526004602052604090206003015490565b61028060035481565b6102a6610567366004612b0b565b610f11565b61059d61057a366004612aa3565b6001600160a01b03166000908152600a602052604090205465ffffffffffff1690565b60405165ffffffffffff909116815260200161028a565b610280610f8d565b6102a6610fcf565b6102806105d2366004612abe565b611017565b6102806105e5366004612aa3565b611025565b61061f6105f8366004612aa3565b60046020526000908152604090208054600182015460028301546003909301549192909184565b60408051948552602085019390935291830152606082015260800161028a565b61028061064d366004612962565b61109e565b6102806364c84b0081565b6103b46802a54ff53a5f1d400081565b600954610404906001600160a01b031681565b6102a661068e366004612abe565b6110c3565b6103b46106a1366004612b35565b61128c565b60006106ba6106b484610bca565b8361109e565b90505b92915050565b6106d1826104a58342612b75565b5050565b6000806106e18461079c565b90506106ed838261130d565b949350505050565b6040805180820190915260008082526020820152600061071460085490565b6040805180820190915260015465ffffffffffff81168252600160301b90046001600160d01b0316602082015290915061074e9082611393565b91505090565b6001600160a01b03811660009081526004602052604081206003015461077983611025565b6106bd9190612b75565b600061079761079160085490565b4261109e565b905090565b604080518082019091526000808252602082015260006107bb83610bca565b6001600160a01b0384166000908152602081815260409182902082518084019093525465ffffffffffff81168352600160301b90046001600160d01b03169082015290915061080a9082611393565b9392505050565b61081e61068e8242612b75565b50565b60006364c84b00821015610837576364c84b0091505b60006301e1338061085461084f6364c84b0086612b8d565b611403565b61085e9190612bba565b905061080a61086e826002612be0565b611421565b61087c3361143c565b336000908152600a60209081526040918290208251606081018452815465ffffffffffff81168083526001600160801b03600160301b9092048216948301949094526001909201549091169281019290925242101561091b5760405162461bcd60e51b8152602060048201526016602482015275546865206c6f636b206469646e27742065787069726560501b60448201526064015b60405180910390fd5b6009546001600160a01b03161561098a5760095460405163fc19fd8960e01b81523360048201526001600160a01b039091169063fc19fd8990602401600060405180830381600087803b15801561097157600080fd5b505af1158015610985573d6000803e3d6000fd5b505050505b6109a081602001516001600160801b03166114b4565b600081604001516001600160801b0316905081602001516001600160801b0316600860008282546109d19190612b8d565b9091555050336000818152600a6020526040902080546001600160b01b031916815560010180546fffffffffffffffffffffffffffffffff19169055610a39907f000000000000000000000000000000000000000000000000000000000000000090836114c6565b6040805182815242602082015233917ff279e6a1f5e320cca91135676d9cb6e44ca8a08c0b88342bcdb1144f6511b568910160405180910390a25050565b336000908152600a60209081526040918290208251606081018452815465ffffffffffff811682526001600160801b03600160301b9091048116938201939093526001909101549091169181019190915281610b0b5760405162461bcd60e51b81526020600482015260136024820152726e656564206e6f6e2d7a65726f2076616c756560681b6044820152606401610912565b600081604001516001600160801b031611610b615760405162461bcd60e51b8152602060048201526016602482015275139bc8195e1a5cdd1a5b99c81b1bd8dac8199bdd5b9960521b6044820152606401610912565b42816000015165ffffffffffff1611610bbc5760405162461bcd60e51b815260206004820152601a60248201527f43616e6e6f742061646420746f2065787069726564206c6f636b0000000000006044820152606401610912565b6106d13383600060026115c6565b6001600160a01b03166000908152600a6020526040902054600160301b90046001600160801b031690565b336001600160a01b037f00000000000000000000000000000000000000000000000000000000000000001614610c675760405162461bcd60e51b815260206004820152601760248201527621b0b63632b91034b9903737ba103a34329037bbb732b960491b6044820152606401610912565b600980546001600160a01b0319166001600160a01b0392909216919091179055565b600354600090819015610ca957600354600254610ca69190612c0f565b90505b600654610cb69042612b8d565b61074e9082612c23565b600080610ccb6106f5565b905061080a838261130d565b336000908152600a60209081526040918290208251606081018452815465ffffffffffff811682526001600160801b03600160301b9091048116938201939093526001909101549091169181019190915282610d6b5760405162461bcd60e51b81526020600482015260136024820152726e656564206e6f6e2d7a65726f2076616c756560681b6044820152606401610912565b60408101516001600160801b031615610dc65760405162461bcd60e51b815260206004820152601960248201527f5769746864726177206f6c6420746f6b656e73206669727374000000000000006044820152606401610912565b428211610e245760405162461bcd60e51b815260206004820152602660248201527f43616e206f6e6c79206c6f636b20756e74696c2074696d6520696e207468652060448201526566757475726560d01b6064820152608401610912565b610e336301e133806002612be0565b610e46906001600160801b031642612b75565b821115610e955760405162461bcd60e51b815260206004820152601e60248201527f566f74696e67206c6f636b2063616e2062652032207965617273206d617800006044820152606401610912565b610ea262093a8042612b75565b821015610ef15760405162461bcd60e51b815260206004820152601d60248201527f566f74696e67206c6f636b2063616e2062652031207765656b206d696e0000006044820152606401610912565b610efe33848460016115c6565b505050565b60006106bd61079183610bca565b336001600160a01b037f00000000000000000000000000000000000000000000000000000000000000001614610f835760405162461bcd60e51b815260206004820152601760248201527621b0b63632b91034b9903737ba103a34329037bbb732b960491b6044820152606401610912565b6106d1828261181b565b600080610f98610c89565b90506b1d6329f1c35ca4bfabb9f56160281b60035482610fb89190612c23565b610fc29190612c0f565b60075461074e9190612b75565b6000610fda33611025565b9050801561081e57610fec3382611908565b61081e7f000000000000000000000000000000000000000000000000000000000000000033836114c6565b60006106bd6106b460085490565b6001600160a01b038116600090815260046020908152604080832081516080810183528154815260018201549381019390935260028101549183019190915260030154606082015281611076610c89565b6005546110839190612b75565b905081606001516110948383611a6f565b6106ed9190612b8d565b60006110b36110ac83610821565b8490611ab7565b6001600160801b03169392505050565b336000908152600a60209081526040918290208251606081018452815465ffffffffffff811682526001600160801b03600160301b909104811693820193909352600190910154909116918101829052906111595760405162461bcd60e51b8152602060048201526016602482015275139bc8195e1a5cdd1a5b99c81b1bd8dac8199bdd5b9960521b6044820152606401610912565b805165ffffffffffff1682116111b15760405162461bcd60e51b815260206004820152601f60248201527f43616e206f6e6c7920696e637265617365206c6f636b206475726174696f6e006044820152606401610912565b6111c06301e133806002612be0565b6111d3906001600160801b031642612b75565b8211156112225760405162461bcd60e51b815260206004820152601e60248201527f566f74696e67206c6f636b2063616e2062652032207965617273206d617800006044820152606401610912565b61122f62093a8042612b75565b82101561127e5760405162461bcd60e51b815260206004820152601d60248201527f566f74696e67206c6f636b2063616e2062652031207765656b206d696e0000006044820152606401610912565b6106d13360008460036115c6565b60008061129842610821565b90506000620151806112ad61084f4287612b8d565b6112b79190612bba565b90506113046802a54ff53a5f1d40006112f5846112e66112d686611b04565b6001600160801b038b1690611b1c565b6001600160801b031690611b1c565b6001600160801b031690611b3d565b95945050505050565b81518151600091829161132b9165ffffffffffff9081169116612b8d565b90508015611389576000846020015184602001516113499190612c42565b6001600160d01b031690506113806113618383612c0f565b61136c600285612c0f565b875161064d919065ffffffffffff16612b75565b925050506106bd565b60009150506106bd565b6040805180820190915260008082526020820152825142906000906113b89083612c6a565b90506113d56001600160a01b03851665ffffffffffff8316612c89565b85602001516113e49190612caf565b6001600160d01b031660208401525065ffffffffffff16815292915050565b6000677fffffffffffffff82111561141a57600080fd5b5060401b90565b60006106bd61143761143284611b7c565b611b9f565b612337565b6114458161079c565b6001600160a01b038216600090815260208181526040909120825192909101516001600160d01b0316600160301b0265ffffffffffff90921691909117905561148c6106f5565b80516020909101516001600160d01b0316600160301b0265ffffffffffff9091161760015550565b6114bc610fcf565b61081e3382612349565b604080516001600160a01b038481166024830152604480830185905283518084039091018152606490920183526020820180516001600160e01b031663a9059cbb60e01b17905291516000928392908716916115229190612cda565b6000604051808303816000865af19150503d806000811461155f576040519150601f19603f3d011682016040523d82523d6000602084013e611564565b606091505b509150915081801561158e57508051158061158e57508080602001905181019061158e9190612cf6565b6115bf5760405162461bcd60e51b815260206004820152600260248201526114d560f21b6044820152606401610912565b5050505050565b6115cf8461143c565b6001600160a01b0384166000908152600a60205260409020821561160557805465ffffffffffff191665ffffffffffff84161781555b83156116505760018101805485919060009061162b9084906001600160801b0316612d18565b92506101000a8154816001600160801b0302191690836001600160801b031602179055505b60018101548154600091611677916001600160801b039091169065ffffffffffff1661128c565b82549091506001600160801b03600160301b9091048116908216116116e95760405162461bcd60e51b815260206004820152602260248201527f5f6465706f7369745f666f723a204f6e6c7920696e63726561736520616d6f756044820152611b9d60f21b6064820152608401610912565b815460009061170890600160301b90046001600160801b031683612d3a565b905061171d87826001600160801b03166124ba565b825481908490600690611741908490600160301b90046001600160801b0316612d18565b92506101000a8154816001600160801b0302191690836001600160801b03160217905550806001600160801b0316600860008282546117809190612b75565b909155505085156117b7576117b77f0000000000000000000000000000000000000000000000000000000000000000333089612632565b825460408051888152600f87900b60208201524281830152905165ffffffffffff909216916001600160a01b038a16917f4566dfc29f6f11d13a418c26a02bef7c28bae749d4de47e4e6a7cddea6730d59919081900360600190a350505050505050565b60008167ffffffffffffffff16116118755760405162461bcd60e51b815260206004820152601a60248201527f5f736574526577617264733a207a65726f206475726174696f6e0000000000006044820152606401610912565b61187d61273c565b8067ffffffffffffffff168267ffffffffffffffff166b1d6329f1c35ca4bfabb9f56160281b6118ad9190612c23565b6118b79190612c0f565b6002556040805167ffffffffffffffff848116825283166020820152428183015290517ff79026a1df5adbbf92e5c3a6a4885053cd8046424bbb028da33a750ca15082bd9181900360600190a15050565b61191061273c565b6001600160a01b0382166000908152600460209081526040918290208251608081018452815481526001820154928101929092526002810154928201929092526003909101546060820152600554611969908290611a6f565b60408201819052606082015183916119819190612b8d565b10156119c45760405162461bcd60e51b8152602060048201526012602482015271115c9c9bdc8818db185a5b48185b5bdd5b9d60721b6044820152606401610912565b81816060018181516119d69190612b75565b90525060055460208281019182526001600160a01b0385166000818152600483526040908190208551815593516001850181905581860151600286018190556060808801516003909701969096558251888152948501919091529083015242928201929092527f483e3ca361c7b5e5a1f600e9c06025be8c62aa815785f54efa3b184761090966906080015b60405180910390a2505050565b815160208301516000916b1d6329f1c35ca4bfabb9f56160281b91611a949085612b8d565b611a9e9190612c23565b611aa89190612c0f565b83604001516106ba9190612b75565b6000816001600160801b0316600003611acf57600080fd5b6000826001600160801b0316604085901b81611aed57611aed612ba4565b0490506001600160801b038111156106ba57600080fd5b60006106bd6040836001600160801b0316901b6127a6565b60006001600160801b038381168184160260401c908111156106ba57600080fd5b6000816001600160801b0316600003611b5557600080fd5b6000826001600160801b03166040856001600160801b0316901b81611aed57611aed612ba4565b600060016001607f1b036001600160801b0383161115611b9b57600080fd5b5090565b60006840000000000000000082600f0b12611bb957600080fd5b600082600f0b1215611bca57600080fd5b6001600160801b038216600160bf1b67ff00000000000000841615611ce157678000000000000000821615611c085768016a09e667f3bcc9090260401c5b674000000000000000821615611c27576801306fe0a31b7152df0260401c5b672000000000000000821615611c46576801172b83c7d517adce0260401c5b671000000000000000821615611c655768010b5586cf9890f62a0260401c5b670800000000000000821615611c84576801059b0d31585743ae0260401c5b670400000000000000821615611ca357680102c9a3e778060ee70260401c5b670200000000000000821615611cc25768010163da9fb33356d80260401c5b670100000000000000821615611ce157680100b1afa5abcbed610260401c5b66ff000000000000821615611ddd576680000000000000821615611d0e5768010058c86da1c09ea20260401c5b6640000000000000821615611d2c576801002c605e2e8cec500260401c5b6620000000000000821615611d4a57680100162f3904051fa10260401c5b6610000000000000821615611d68576801000b175effdc76ba0260401c5b6608000000000000821615611d8657680100058ba01fb9f96d0260401c5b6604000000000000821615611da45768010002c5cc37da94920260401c5b6602000000000000821615611dc2576801000162e525ee05470260401c5b600160301b821615611ddd5768010000b17255775c040260401c5b65ff0000000000821615611ed35765800000000000821615611e08576801000058b91b5bc9ae0260401c5b65400000000000821615611e2557680100002c5c89d5ec6d0260401c5b65200000000000821615611e425768010000162e43f4f8310260401c5b65100000000000821615611e5f57680100000b1721bcfc9a0260401c5b65080000000000821615611e7c5768010000058b90cf1e6e0260401c5b65040000000000821615611e99576801000002c5c863b73f0260401c5b65020000000000821615611eb657680100000162e430e5a20260401c5b65010000000000821615611ed3576801000000b1721835510260401c5b64ff00000000821615611fc057648000000000821615611efc57680100000058b90c0b490260401c5b644000000000821615611f185768010000002c5c8601cc0260401c5b642000000000821615611f34576801000000162e42fff00260401c5b641000000000821615611f505768010000000b17217fbb0260401c5b640800000000821615611f6c576801000000058b90bfce0260401c5b640400000000821615611f8857680100000002c5c85fe30260401c5b640200000000821615611fa45768010000000162e42ff10260401c5b640100000000821615611fc057680100000000b17217f80260401c5b63ff0000008216156120a4576380000000821615611fe75768010000000058b90bfc0260401c5b6340000000821615612002576801000000002c5c85fe0260401c5b632000000082161561201d57680100000000162e42ff0260401c5b6310000000821615612038576801000000000b17217f0260401c5b630800000082161561205357680100000000058b90c00260401c5b630400000082161561206e5768010000000002c5c8600260401c5b6302000000821615612089576801000000000162e4300260401c5b63010000008216156120a45768010000000000b172180260401c5b62ff000082161561217f57628000008216156120c9576801000000000058b90c0260401c5b624000008216156120e357680100000000002c5c860260401c5b622000008216156120fd5768010000000000162e430260401c5b6210000082161561211757680100000000000b17210260401c5b620800008216156121315768010000000000058b910260401c5b6204000082161561214b576801000000000002c5c80260401c5b6202000082161561216557680100000000000162e40260401c5b6201000082161561217f576801000000000000b1720260401c5b61ff00821615612251576180008216156121a257680100000000000058b90260401c5b6140008216156121bb5768010000000000002c5d0260401c5b6120008216156121d4576801000000000000162e0260401c5b6110008216156121ed5768010000000000000b170260401c5b610800821615612206576801000000000000058c0260401c5b61040082161561221f57680100000000000002c60260401c5b61020082161561223857680100000000000001630260401c5b61010082161561225157680100000000000000b10260401c5b60ff82161561231a57608082161561227257680100000000000000590260401c5b604082161561228a576801000000000000002c0260401c5b60208216156122a257680100000000000000160260401c5b60108216156122ba576801000000000000000b0260401c5b60088216156122d257680100000000000000060260401c5b60048216156122ea57680100000000000000030260401c5b600282161561230257680100000000000000010260401c5b600182161561231a57680100000000000000010260401c5b604082901c607f031c60016001607f1b0381111561080a57600080fd5b60008082600f0b1215611b9b57600080fd5b61235161273c565b6001600160a01b03821660009081526004602090815260409182902082516080810184528154815260018201549281019290925260028101549282019290925260039091015460608201526005546123aa908290611a6f565b604082015280518211156123f75760405162461bcd60e51b8152602060048201526014602482015273115c9c9bdc881d5b9cdd185ad948185b5bdd5b9d60621b6044820152606401610912565b81816000018181516124099190612b8d565b90525060055460208083019182526001600160a01b03851660009081526004909152604080822084518155925160018401558301516002830155606083015160039283015581548492919061245f908490612b8d565b90915550506020808201516040808401518151868152938401929092528201524260608201526001600160a01b038416907f05b744e3e9358bc00ba3cc0c6606a4d6536134dba00b2d2ee4b5de169acd642790608001611a62565b6000811161250a5760405162461bcd60e51b815260206004820152601960248201527f5f7374616b653a207a65726f207374616b6520616d6f756e74000000000000006044820152606401610912565b61251261273c565b6001600160a01b038216600090815260046020908152604091829020825160808101845281548152600182015492810192909252600281015492820192909252600390910154606082015260055461256b908290611a6f565b6040820152805182908290612581908390612b75565b90525060055460208083019182526001600160a01b0385166000908152600490915260408082208451815592516001840155830151600283015560608301516003928301558154849291906125d7908490612b75565b90915550506020808201516040808401518151868152938401929092528201524260608201526001600160a01b038416907f2720efa4b2dd4f3f8a347da3cbd290a522e9432da9072c5b8e6300496fdde28290608001611a62565b604080516001600160a01b0385811660248301528481166044830152606480830185905283518084039091018152608490920183526020820180516001600160e01b03166323b872dd60e01b17905291516000928392908816916126969190612cda565b6000604051808303816000865af19150503d80600081146126d3576040519150601f19603f3d011682016040523d82523d6000602084013e6126d8565b606091505b50915091508180156127025750805115806127025750808060200190518101906127029190612cf6565b6127345760405162461bcd60e51b815260206004820152600360248201526229aa2360e91b6044820152606401610912565b505050505050565b6000612746610c89565b90506b1d6329f1c35ca4bfabb9f56160281b600354826127669190612c23565b6127709190612c0f565b600760008282546127819190612b75565b92505081905550806005600082825461279a9190612b75565b90915550504260065550565b6000816000036127b857506000919050565b816001600160801b82106127d15760809190911c9060401b5b6801000000000000000082106127ec5760409190911c9060201b5b64010000000082106128035760209190911c9060101b5b6201000082106128185760109190911c9060081b5b610100821061282c5760089190911c9060041b5b6010821061283f5760049190911c9060021b5b6004821061284b5760011b5b600181858161285c5761285c612ba4565b048201901c9050600181858161287457612874612ba4565b048201901c9050600181858161288c5761288c612ba4565b048201901c905060018185816128a4576128a4612ba4565b048201901c905060018185816128bc576128bc612ba4565b048201901c905060018185816128d4576128d4612ba4565b048201901c905060018185816128ec576128ec612ba4565b048201901c9050600081858161290457612904612ba4565b0490508082106129145780611304565b509392505050565b919050565b80356001600160a01b038116811461291c57600080fd5b6000806040838503121561294b57600080fd5b61295483612921565b946020939093013593505050565b6000806040838503121561297557600080fd5b50508035926020909101359150565b60005b8381101561299f578181015183820152602001612987565b838111156129ae576000848401525b50505050565b60208152600082518060208401526129d3816040850160208701612984565b601f01601f19169190910160400192915050565b6000604082840312156129f957600080fd5b6040516040810181811067ffffffffffffffff82111715612a2a57634e487b7160e01b600052604160045260246000fd5b604052905080823565ffffffffffff81168114612a4657600080fd5b815260208301356001600160d01b0381168114612a6257600080fd5b6020919091015292915050565b60008060608385031215612a8257600080fd5b612a8b83612921565b9150612a9a84602085016129e7565b90509250929050565b600060208284031215612ab557600080fd5b6106ba82612921565b600060208284031215612ad057600080fd5b5035919050565b600060408284031215612ae957600080fd5b6106ba83836129e7565b803567ffffffffffffffff8116811461291c57600080fd5b60008060408385031215612b1e57600080fd5b612b2783612af3565b9150612a9a60208401612af3565b60008060408385031215612b4857600080fd5b82356001600160801b038116811461295457600080fd5b634e487b7160e01b600052601160045260246000fd5b60008219821115612b8857612b88612b5f565b500190565b600082821015612b9f57612b9f612b5f565b500390565b634e487b7160e01b600052601260045260246000fd5b60006001600160801b0380841680612bd457612bd4612ba4565b92169190910492915050565b60006001600160801b0380831681851681830481118215151615612c0657612c06612b5f565b02949350505050565b600082612c1e57612c1e612ba4565b500490565b6000816000190483118215151615612c3d57612c3d612b5f565b500290565b60006001600160d01b0383811690831681811015612c6257612c62612b5f565b039392505050565b600065ffffffffffff83811690831681811015612c6257612c62612b5f565b60006001600160d01b0382811684821681151582840482111615612c0657612c06612b5f565b60006001600160d01b03828116848216808303821115612cd157612cd1612b5f565b01949350505050565b60008251612cec818460208701612984565b9190910192915050565b600060208284031215612d0857600080fd5b815180151581146106ba57600080fd5b60006001600160801b03808316818516808303821115612cd157612cd1612b5f565b60006001600160801b0383811690831681811015612c6257612c62612b5f56fea2646970667358221220679712942f488caea51e8c038b866ae342feae3b4e51ad99d70c3034afc7559b64736f6c634300080d0033",
  "linkReferences": {},
  "deployedLinkReferences": {}
}